S01B00007370695F6D61737465725F756172745F6C65642E7372656323
S11300000C9432000C944F000C944F000C944F004D
S11300100C944F000C944F000C944F000C944F0020
S11300200C944F000C944F000C944F000C944F0010
S11300300C944F000C944F000C944F000C944F0000
S11300400C944F000C944F000C944F000C944F00F0
S11300500C944F00060143018101BF01FD013B02E5
S11300607902B70211241FBECFE5D8E0DEBFCDBFB1
S113007011E0A0E6B0E0EAE5F6E002C005900D92DA
S1130080A631B107D9F721E0A6E1B1E001C01D9284
S1130090A731B207E1F70E94E1000C942B030C9402
S11300A000008FEF8ABBDA988FEF9CE70197F1F796
S11300B000C0000083E30E946D0082E30E946D0093
S11300C088E20E946D008CE00E946D0086E00E9430
S11300D06D0081E00E946D0008959BB39F70282FEE
S11300E0207F922B9BBBD998DB9AEFE3FFE13197FA
S11300F0F1F700C00000DB98EFE3FFE13197F1F77F
S113010000C000002BB32F70F0E18F9FC0011124B9
S1130110822B8BBBDB9A8FE39FE10197F1F700C041
S11301200000DB98EFE3FFE13197F1F700C0000036
S113013008959BB39F70282F207F922B9BBBD99A45
S1130140DB9AEFE3FFE13197F1F700C00000DB98A1
S1130150EFE3FFE13197F1F700C000002BB32F70FC
S1130160F0E18F9FC0011124822B8BBBDB9A8FE3BC
S11301709FE10197F1F700C00000DB98EFE3FFE196
S11301803197F1F700C000000895CF93DF93EC019D
S11301908881882331F021960E94990089918111E8
S11301A0FBCFDF91CF91089581E00E946D008FE332
S11301B09FE10197F1F700C0000080E80E946D0004
S11301C008950E9451000E9403030E94F50280E8F2
S11301D00E946D0080E690E00E94C5002FEF83ED41
S11301E090E3215080409040E1F700C000000E945D
S11301F0D400C1E00E94210390E0FC01F197E830B3
S1130200F105C0F7E65DFF4F0C942503C39881E325
S11302100E94FB02C39A2FEF81EE94E021508040AC
S11302209040E1F700C0000080E80E946D008AE67B
S113023090E00E94C50081E790E00E941203C398F9
S11302400E94FF0280931601C39A2FEF81EE94E07F
S1130250215080409040E1F700C0000080911601D9
S1130260813441F68BB38C278BBB2FEF83ED90E366
S1130270215080409040E1F700C000008CE790E0FE
S11302800E941203B7CFC39882E30E94FB02C39A71
S11302902FEF81EE94E0215080409040E1F700C0C0
S11302A0000080E80E946D008AE890E00E94C5008A
S11302B081E990E00E941203C3980E94FF02809398
S11302C01601C39A2FEF81EE94E0215080409040B4
S11302D0E1F700C0000080911601823409F08ACF52
S11302E08BB38C278BBB2FEF83ED90E321508040A1
S11302F09040E1F700C000008CE790E00E941203F8
S113030079CFC39883E30E94FB02C39A2FEF81EE57
S113031094E0215080409040E1F700C0000080E864
S11303200E946D008CE990E00E94C50083EA90E091
S11303300E941203C3980E94FF0280931601C39A7D
S11303402FEF81EE94E0215080409040E1F700C00F
S1130350000080911601833409F04CCF8BB38C27B5
S11303608BBB2FEF83ED90E3215080409040E1F769
S113037000C000008EEA90E00E9412033BCFC398B5
S113038084E30E94FB02C39A2FEF81EE94E0215094
S113039080409040E1F700C0000080E80E946D00BA
S11303A08CEB90E00E94C50083EC90E00E94120365
S11303B0C3980E94FF0280931601C39A2FEF81EE27
S11303C094E0215080409040E1F700C0000080910B
S11303D016018D3409F00ECF8BB38C278BBB2FEF16
S11303E083ED90E3215080409040E1F700C000008D
S11303F08EEC90E00E941203FDCEC39885E30E9428
S1130400FB02C39A2FEF81EE94E02150804090408C
S1130410E1F700C0000080E80E946D008AE690E0E9
S11304200E94C5008CED90E00E941203C3980E94C4
S1130430FF0280931601C39A2FEF81EE94E02150BE
S113044080409040E1F700C000008091160185349F
S113045009F0D0CE8BB38C278BBB2FEF83ED90E3C9
S1130460215080409040E1F700C0000088EE90E009
S11304700E941203BFCEC39886E30E94FB02C39A74
S11304802FEF81EE94E0215080409040E1F700C0CE
S1130490000080E80E946D008AE890E00E94C50098
S11304A081E990E00E941203C3980E94FF028093A6
S11304B01601C39A2FEF81EE94E0215080409040C2
S11304C0E1F700C0000080911601863409F092CE55
S11304D08BB38C278BBB2FEF83ED90E321508040AF
S11304E09040E1F700C0000088EE90E00E94120303
S11304F081CEC39887E30E94FB02C39A2FEF81EE5B
S113050094E0215080409040E1F700C0000080E872
S11305100E946D008CE990E00E94C50083EA90E09F
S11305200E941203C3980E94FF0280931601C39A8B
S11305302FEF81EE94E0215080409040E1F700C01D
S1130540000080911601873409F054CE8BB38C27B8
S11305508BBB2FEF83ED90E3215080409040E1F777
S113056000C0000087EF90E00E94120343CEC398BE
S113057088E30E94FB02C39A2FEF81EE94E021509E
S113058080409040E1F700C0000080E80E946D00C8
S11305908CEB90E00E94C50083EC90E00E94120373
S11305A0C3980E94FF0280931601C39A2FEF81EE35
S11305B094E0215080409040E1F700C00000809119
S11305C01601883409F016CE8BB38C278BBB2FEF22
S11305D083ED90E3215080409040E1F700C000009B
S11305E086E091E00E94120305CE81E58DB987B3C0
S11305F0886A87BB08958FB9779BFECF0895779B50
S1130600FECF8FB1089587E689B9539A549A80B57D
S1130610826080BD80B5846080BD08955D9BFECFFF
S11306208CB90895CF93DF93EC018881882331F04E
S113063021960E940E0389918111FBCFDF91CF9106
S113064008955D9BFECF8CB10895EE0FFF1F0590BA
S10D0650F491E02D0994F894FFCF13
S113065A68657920736D696C6500524F4F4D20317E
S113066A000D0A524F4F4D20310D0A000D0A524F08
S113067A4F4D2031206F6E0D0A00524F4F4D2032DC
S113068A000D0A524F4F4D20320D0A00524F4F4D62
S113069A2033000D0A524F4F4D20330D0A000D0A24
S11306AA524F4F4D2033206F6E0D0A004D4F544F59
S11306BA5231000D0A4D4F544F52310D0A000D0AA2
S11306CA4D4F544F5231206F6E0D0A000D0A524F8E
S11306DA4F4D2031200D0A000D0A524F4F4D203143
S11306EA206F66660D0A000D0A524F4F4D203320C3
S11306FA6F66660D0A000D0A4D4F544F5231206F32
S109070A66660D0A000002
S9030000FC
