S01700004763634170706C69636174696F6E322E737265635A
S11300000C9432000C943C000C943C000C943C0086
S11300100C943C000C943C000C943C000C943C006C
S11300200C943C000C943C000C943C000C943C005C
S11300300C943C000C943C000C943C000C943C004C
S11300400C943C000C943C000C943C000C943C003C
S11300500C943C006D008700A100BB00D700F100A8
S11300600B01250111241FBECFE5D8E0DEBFCDBFB3
S11300700E9453000C947B010C9400008FEF81BB11
S113008089E785BD0895919A92982FEF829FC001C8
S1130090112464E670E00E944D0163BD08959198B7
S11300A0929813BC08950E9440010E943E00C8E04B
S11300B00E9449012FEF33EC99E0215030409040E9
S11300C0E1F700C0000090E0FC01F197E830F10591
S11300D078F7E65DFF4F0C94610182B38C2782BBF5
S11300E0949A2FEF31EE84E0215030408040E1F7C4
S11300F000C0000081E40E9445019FEF23EC39E039
S1130100915020403040E1F700C00000D1CF82B3CD
S11301108C2782BB959A8FEF91EE24E0815090401A
S11301202040E1F700C0000082E40E9445013FEF57
S113013083EC99E0315080409040E1F700C000002A
S1130140B7CF82B38C2782BB969A2FEF31EE84E02F
S1130150215030408040E1F700C0000083E40E9459
S113016045019FEF23EC39E0915020403040E1F706
S113017000C000009DCF82B38C2782BB80E50E9423
S113018043008FEF91EE24E0815090402040E1F74E
S113019000C000008DE40E9445013FEF83EC99E02C
S11301A0315080409040E1F700C0000081CF82B31D
S11301B08C2782BB94982FEF31EE84E0215030409D
S11301C08040E1F700C0000085E40E9445019FEFF4
S11301D023EC39E0915020403040E1F700C00000AA
S11301E067CF82B38C2782BB95988FEF91EE24E082
S11301F0815090402040E1F700C0000086E40E9456
S113020045013FEF83EC99E0315080409040E1F7A5
S113021000C000004DCF82B38C2782BB96982FEF8D
S113022031EE84E0215030408040E1F700C000000E
S113023087E40E9445019FEF23EC39E09150204070
S11302403040E1F700C0000033CF82B38C2782BB7B
S11302500E944F008FEF91EE24E0815090402040A7
S1130260E1F700C0000088E40E9445013FEF83EC01
S113027099E0315080409040E1F700C0000018CF71
S1130280BE9ABC9880E48DB908958FB9779BFECF50
S11302900895779BFECF8FB1089597FB072E16F430
S11302A0009407D077FD09D00E94670107FC05D0B0
S11302B03EF4909581959F4F0895709561957F4F79
S11302C00895EE0FFF1F0590F491E02D0994AA1BE9
S11302D0BB1B51E107C0AA1FBB1FA617B70710F02D
S11302E0A61BB70B881F991F5A95A9F7809590955F
S10D02F0BC01CD010895F894FFCF7E
S9030000FC
